:100000004DC000005BC0000059C0000057C0000098
:1000100055C0000053C0000051C000004FC0000098
:100020004DC000004BC0000049C0000047C00000A8
:1000300045C0000043C0000041C000003FC00000B8
:100040003DC000003BC0000039C0000037C00000C8
:1000500035C0000033C0000031C000002FC00000D8
:100060002DC000002BC0000029C0000027C00000E8
:1000700025C0000023C0000021C000001FC00000F8
:100080001DC000001BC0000019C000000D022202AC
:1000900035024A025D0272028402980211241FBED8
:1000A000CFEFD0E1DEBFCDBF21E0A0E0B1E001C0E5
:1000B0001D92A932B207E1F7E1D2ECC2A1CF20E054
:1000C00049E350E06AE370E08EE091E05CD221E029
:1000D00049E350E06AE370E089E191E054D220E026
:1000E00042E350E061E370E084E291E08DD221E0F0
:1000F00042E350E061E370E088E091E085D222E0E5
:1001000042E350E061E370E08FE191E07DD223E0D3
:1001100042E350E061E370E084E191E075D2109237
:100120000D0108950F931F9384E291E07FD2809197
:10013000040190910501A0910601B0910701409141
:1001400000015091010160910201709103018C0145
:100150009D01041B150B260B370B083C11052105CF
:10016000310558F08093000190930101A0930201A2
:10017000B093030181E080930D011F910F910895C9
:100180000F931F9384E291E064D2809104019091D7
:100190000501A0910601B091070140910001509125
:1001A000010160910201709103018C019D01041B0A
:1001B000150B260B370B083C11052105310550F0B6
:1001C0008093000190930101A0930201B093030179
:1001D00010920D011F910F9108950F931F9388E0C6
:1001E00091E024D28091040190910501A091060133
:1001F000B09107014091000150910101609102010D
:10020000709103018C019D01041B150B260B370B0C
:10021000083C11052105310558F0809300019093A9
:100220000101A0930201B093030183E080930D01CB
:100230001F910F9108950F931F9388E091E009D2C9
:100240008091040190910501A0910601B0910701F0
:1002500040910001509101016091020170910301F0
:100260008C019D01041B150B260B370B083C110557
:100270002105310558F08093000190930101A0936E
:100280000201B093030182E080930D011F910F9151
:1002900008950F931F938FE191E0C8D180910401DD
:1002A00090910501A0910601B091070140910001D4
:1002B0005091010160910201709103018C019D0137
:1002C000041B150B260B370B083C110521053105C6
:1002D00058F08093000190930101A0930201B09324
:1002E000030185E080930D011F910F9108950F93F5
:1002F0001F938FE191E0ADD18091040190910501B0
:10030000A0910601B09107014091000150910101B7
:1003100060910201709103018C019D01041B150B7A
:10032000260B370B083C11052105310558F0809349
:10033000000190930101A0930201B093030184E0B6
:1003400080930D011F910F9108950F931F9384E1E6
:1003500091E06CD18091040190910501A09106017A
:10036000B09107014091000150910101609102019B
:10037000709103018C019D01041B150B260B370B9B
:10038000083C11052105310558F080930001909338
:100390000101A0930201B093030187E080930D0156
:1003A0001F910F9108950F931F9384E191E051D114
:1003B0008091040190910501A0910601B09107017F
:1003C000409100015091010160910201709103017F
:1003D0008C019D01041B150B260B370B083C1105E6
:1003E0002105310558F08093000190930101A093FD
:1003F0000201B093030186E080930D011F910F91DC
:100400000895E0910D018E2F90E08830910508F05D
:10041000A0C0FC01EA5BFF4F34C184DE8EE091E0B6
:10042000C7D0823021F480930D01AADE92C089E109
:1004300091E0BED0823009F08CC086E080930D013F
:100440009FDE87C09DDE8EE091E0B2D0823019F44D
:1004500080930D017EC089E191E0AAD0823009F03D
:1004600078C086E080930D0174C0B7DE8EE091E025
:100470009FD0823029F484E080930D01DCDE69C0D6
:1004800089E191E095D0823009F063C010920D01AE
:10049000D2DE5FC0D0DE8EE091E08AD0823021F4DF
:1004A00084E080930D0155C089E191E081D08230D4
:1004B00009F04FC010920D014CC0EBDE8EE091E0D0
:1004C00077D0823029F486E080930D0110DF41C09F
:1004D00089E191E06DD0823009F03BC080930D013D
:1004E00006DF37C004DF8EE091E062D0823021F475
:1004F00086E080930D012DC089E191E059D08230D2
:1005000041F580930D0125C020DF8EE091E050D0B1
:10051000823021F410920D0146DF1BC089E191E089
:1005200047D08230B1F484E080930D013CDF11C0EC
:100530003ADF8EE091E03CD0823019F410920D0148
:1005400008C089E191E034D0823019F484E08093CE
:100550000D018FE99FE00197F1F700C00000809145
:10056000040190910501A0910601B0910701019647
:10057000A11DB11D8093040190930501A093060174
:10058000B09307010895FC01718360835383428314
:10059000248381E08583FB01308181E090E002C00B
:1005A000880F991F2A95E2F7809583238083089509
:1005B000FC01A281B3818C9121E030E0048002C073
:1005C000220F331F0A94E2F7282359F485818130E2
:1005D00041F4AFE3BCE91197F1F700C000001582C8
:1005E0000895222369F0858181110CC08FE39CE975
:1005F0000197F1F700C0000081E0858382E0089553
:1006000080E0089580E00895FC0171836083538346
:1006100042832483FB01308181E090E002C0880F97
:10062000991F2A95E2F7832B80830895DC011296A7
:10063000ED91FC911397408121E030E0C9011496BF
:100640000C9002C0880F991F0A94E2F7842B8083D4
:100650000895DC011296ED91FC911397408121E001
:1006600030E0B90114960C9002C0660F771F0A940F
:10067000E2F7CB01809584238083089520DDC1DEDD
:10068000FECFEE0FFF1F0024001C0BBE0790F6915B
:08069000E02D0994F894FFCF5E
:00000001FF
