S01200005374616E644C696768742E7372656320
S113000045C0000053C0000051C000004FC00000B4
S11300104DC000004BC0000049C0000047C00000B4
S113002045C0000043C0000041C000003FC00000C4
S11300303DC000003BC0000039C0000037C00000D4
S113004035C0000033C0000031C000002FC00000E4
S11300502DC000002BC0000029C0000027C00000F4
S113006025C0000023C0000021C000001FC0000004
S11300701DC000001BC0000019C0000017C0000014
S113008015C0000013C0000011C0000011241FBEE1
S1130090CFEFD0E1DEBFCDBF21E0A0E0B1E001C0F1
S11300A01D92A533B207E1F73AD183C1A9CF1092CB
S11300B0100120E049E350E06AE370E08BE191E055
S11300C0E2D021E049E350E06AE370E085E091E0AA
S11300D0DAD020E042E350E061E370E081E291E0B5
S11300E009D121E042E350E061E370E08BE291E06A
S11300F001D122E042E350E061E370E08BE091E063
S1130100F9D023E042E350E061E370E086E291E05D
S1130110F1D024E042E350E061E370E081E191E05A
S1130120E9D025E042E350E061E370E080E391E050
S1130130E1D026E042E350E061E370E080E091E04A
S1130140D9D027E042E350E061E370E086E191E03A
S1130150D1C0089580911001823031F128F48823B0
S113016049F0813089F00895833079F1843009F4BD
S11301703DC008958BE191E093D0823009F045C0F1
S113018081E08093100108958BE191E089D0823061
S113019019F480931001089585E091E081D08230B4
S11301A0A1F51092100108958BE191E079D082308D
S11301B021F483E080931001089585E091E070D0EC
S11301C0823019F51092100108958BE191E068D006
S11301D0823021F484E080931001089585E091E059
S11301E05FD0823091F41092100108958BE191E078
S11301F057D0823019F410921001089585E091E0EF
S11302004FD0823011F410921001089582E390E0EF
S113021083C0089581E291E078D08BE291E075C0CB
S113022008958BE091E071D086E291E06EC008956C
S113023081E191E06AD080E391E067C0089580E0B5
S113024091E063D086E191E060C00895809110014F
S1130250811101C0DBDF80911001813009F4DADF04
S113026080911001823009F4DCDF80911001833029
S113027009F4DEDF80911001843009F4E0CF0895A1
S113028069DFE4CF0895FC01CB017183608353835C
S11302904283248331E03583422F60E043C00895D4
S11302A0CF93DF93EC016C818A819B8178D0982F66
S11302B081110BC08D81813041F4EFE3FCE931976A
S11302C0F1F700C000001D8212C0992369F08D81EE
S11302D081110CC08FE39CE90197F1F700C0000085
S11302E081E08D8382E003C080E001C080E0DF9183
S11302F0CF910895FC01CB017183608353834283C2
S11303002483422F61E00EC0089541E0FC01648122
S11303108281938127C0089560E021C00895C7DEDB
S1130320AFDFFECF613061F4FC01508121E030E0A9
S1130330042E02C0220F331F0A94E2F7252B2083D8
S113034061110CC0FC01508121E030E002C0220F99
S1130350331F4A95E2F72095252320830895FC0155
S11303606083089541110DC0FC01508121E030E00B
S1130370062E02C0220F331F0A94E2F7209525238C
S11303802083413059F4FC01408121E030E002C077
S1130390220F331F6A95E2F7242B20830895FC0172
S11303A0808190E002C0959587956A95E2F7817007
S10903B00895F894FFCF4C
S9030000FC
