S01200005374616E644C696768742E7372656320
S113000045C0000053C0000051C000004FC00000B4
S11300104DC000004BC0000049C0000047C00000B4
S113002045C0000043C0000041C000003FC00000C4
S11300303DC000003BC0000039C0000037C00000D4
S113004035C0000033C0000031C000002FC00000E4
S11300502DC000002BC0000029C0000027C00000F4
S113006025C0000023C0000021C000001FC0000004
S11300701DC000001BC0000019C0000017C0000014
S113008015C0000013C0000011C0000011241FBEE1
S1130090CFEFD0E1DEBFCDBF21E0A0E0B1E001C0F1
S11300A01D92A533B207E1F76AD16CC1A9CF1092B2
S11300B0100120E049E350E06AE370E08BE191E055
S11300C0E3D021E049E350E06AE370E085E091E0A9
S11300D0DBD020E042E350E061E370E081E291E0B4
S11300E014D121E042E350E061E370E08BE291E05F
S11300F00CD122E042E350E061E370E08BE091E058
S113010004D123E042E350E061E370E086E291E051
S1130110FCD024E042E350E061E370E081E191E04F
S1130120F4D025E042E350E061E370E080E391E045
S1130130ECD026E042E350E061E370E080E091E03F
S1130140E4D027E042E350E061E370E086E191E02F
S1130150DCC0089581E291E0EAD08BE291E0E7D03F
S11301608BE091E0E4D086E291E0E1D081E191E09E
S1130170DED080E391E0DBD080E091E0D8D086E16E
S113018091E0D5C0089581E291E0E6D08BE291E060
S1130190E3C008958BE091E0DFD086E291E0DCC01B
S11301A0089581E191E0D8D080E391E0D5C008952D
S11301B080E091E0D1D086E191E0CEC008958091B5
S11301C01001823061F128F4882351F08130A1F0CC
S11301D00895833009F435C0843009F444C0089587
S11301E0B9DF8BE191E065D0823009F04CC0CBDF00
S11301F081E08093100108958BE191E05AD0823020
S113020021F4C8DF82E08093100185E091E051D0B1
S1130210823009F038C09EDF1092100108958BE1FE
S113022091E047D0823021F4BCDF83E08093100159
S113023085E091E03ED0823031F58CDF10921001E0
S113024008958BE191E035D0823021F4B1DF84E070
S11302508093100185E091E02CD08230A1F47ADF04
S11302601092100108958BE191E023D0823019F4AB
S113027071DF1092100185E091E01BD0823019F4F7
S113028069DF109210010895FC0171836083538328
S11302904283248381E08583FB01308181E090E007
S11302A002C0880F991F2A95E2F7809583238083E3
S11302B00895FC01A281B3818C9121E030E0048097
S11302C002C0220F331F0A94E2F7282359F48581D0
S11302D0813041F4AFE3BCE91197F1F700C00000AD
S11302E015820895222369F0858181110CC08FE362
S11302F09CE90197F1F700C0000081E0858382E06A
S1130300089580E0089580E00895FC01718360837E
S1130310538342832483FB01308181E090E002C057
S1130320880F991F2A95E2F7832B80830895DC01B7
S11303301296ED91FC911397408121E030E0B901D0
S113034014960C9002C0660F771F0A94E2F7CB0153
S11303508095842380830895DC011296ED91FC91AD
S11303601397408121E030E0C90114960C9002C03B
S1130370880F991F0A94E2F7842B8083089597DEEF
S10B03801EDFFECFF894FFCF4D
S9030000FC
