S0150000547261666669635369676E616C2E73726563F2
S113000045C0000053C0000051C000004FC00000B4
S11300104DC000004BC0000049C0000047C00000B4
S113002045C0000043C0000041C000003FC00000C4
S11300303DC000003BC0000039C0000037C00000D4
S113004035C0000033C0000031C000002FC00000E4
S11300502DC000002BC0000029C0000027C00000F4
S113006025C0000023C0000021C000001FC0000004
S11300701DC000001BC0000019C0000017C0000014
S113008015C0000013C0000011C0000011241FBEE1
S1130090CFEFD0E1DEBFCDBF21E0A0E0B1E001C0F1
S11300A01D92AB33B207E1F7FED100C2A9CF8FE0B6
S11300B091E0D1D18AE191E0CED181E391E0E0D128
S11300C08AE091E0DDC108958AE091E0C4D186E33D
S11300D091E0D6C1089586E391E0BDD181E391E03A
S11300E0BAD18CE291E0CCD18AE191E0C9C1089502
S11300F08CE291E0B0D18FE091E0C2C108950F93FA
S11301001F9380910901813099F138F0823009F40C
S11301105AC0833009F481C0A8C0C9DF80910501A9
S113012090910601A0910701B0910801409100014E
S11301305091010160910201709103018C019D01B4
S1130140041B150B260B370BB901A801483B5B4078
S11301506105710508F489C0809300019093010141
S1130160A0930201B093030181E0809309017DC053
S1130170ABDF8091050190910601A0910701B09138
S113018008014091000150910101609102017091B8
S113019003018C019D01041B150B260B370BB901C0
S11301A0A801483E53406105710508F45EC0809380
S11301B0000190930101A0930201B093030182E036
S11301C08093090152C087DF809105019091060157
S11301D0A0910701B09108014091000150910101E3
S11301E060910201709103018C019D01041B150BA8
S11301F0260B370BB901A801483B5B40610571052B
S1130200A0F18093000190930101A0930201B093A7
S1130210030183E08093090128C06ADF809105010E
S113022090910601A0910701B0910801409100014D
S11302305091010160910201709103018C019D01B3
S1130240041B150B260B370BB901A801483E53407C
S11302506105710550F08093000190930101A09312
S11302600201B0930301109209011F910F910895A7
S113027080E291E0B2D0823071F48091090190E083
S1130280019683709078992324F401978C6F9F6F63
S113029001968093090180910901813041F028F091
S11302A0823039F0833039F0089501CF08950CCFAE
S11302B0089511CF08951CCF089520E042E650E040
S11302C061E670E081E391E0B4D021E042E650E0E1
S11302D061E670E08FE091E0ACD022E042E650E0CD
S11302E061E670E08CE291E0A4D023E042E650E0C5
S11302F061E670E08AE191E09CD024E042E650E0BF
S113030061E670E086E391E094D025E042E650E0B7
S113031061E670E08AE091E08CD020E049E350E0AF
S11303206AE370E084E191E043D021E049E350E0E6
S11303306AE370E086E291E03BD022E049E350E0DA
S11303406AE370E080E291E033C0089584E191E0D3
S113035044D081111092040186E291E03ED08823BA
S113036019F081E08093040180910401882319F03D
S1130370813019F003C0C3DE01C07ADF8FE99FE04A
S11303800197F1F700C000008091050190910601EA
S1130390A0910701B09108010196A11DB11D8093A0
S11303A0050190930601A0930701B09308010895F5
S11303B0FC017183608353834283248381E08583BA
S11303C0FB01308181E090E002C0880F991F2A95DB
S11303D0E2F78095832380830895FC01A281B38191
S11303E08C9121E030E0048002C0220F331F0A9474
S11303F0E2F7282359F48581813041F4AFE3BCE965
S11304001197F1F700C0000015820895222369F0C6
S1130410858181110CC08FE39CE90197F1F700C03D
S1130420000081E0858382E0089580E0089580E003
S11304300895FC0171836083538342832483FB0109
S1130440308181E090E002C0880F991F2A95E2F77D
S1130450832B80830895DC011296ED91FC91139710
S1130460408121E030E0B90114960C9002C0660F7F
S1130470771F0A94E2F7CB01809584238083089543
S1130480DC011296ED91FC911397408121E030E05C
S1130490C90114960C9002C0880F991F0A94E2F7C0
S11304A0842B8083089509DF51DFFECFF894FFCFBA
S9030000FC
