:1000000045C0000060C000005EC000005CC0000091
:100010005AC0000058C0000056C0000054C0000084
:1000200052C00000E3C200004EC000004CC00000FF
:100030004AC0000048C0000046C0000044C00000A4
:10004000ACC2000040C000003EC000003CC0000048
:100050003AC0000038C0000036C0000034C00000C4
:1000600032C0000030C000002EC000002CC00000D4
:100070002AC0000028C0000026C0000024C00000E4
:1000800022C0000020C000001EC0000011241FBEBE
:10009000CFEFD0E1DEBFCDBF11E0A0E0B1E0EAE2FA
:1000A000F7E000E00BBF02C007900D92AC30B10743
:1000B000D9F721E0ACE0B1E001C01D92A232B20755
:1000C000E1F7BBD230C39CCF109211011092100106
:1000D00010921A01109219011092180110920F013A
:1000E00039D1D6D2DED220E049E350E06AE370E0B5
:1000F0008BE191E0F8D021E049E350E06AE370E061
:1001000082E191E0F0C0089580910F01813009F003
:1001100051C040911001509111014F5F5F4F9A0102
:10012000369527953695279536952795A5ECB0E217
:10013000D7D2929582958F7089279F70892768EE14
:1001400073E0869F9001879F300D969F300D11249C
:10015000CA01821B930B9093110180931001843F7D
:10016000914010F413D201C015D2809110019091EA
:100170001101892BF9F480911A0190E001966CE34A
:1001800070E09BD280931A01811114C080911901F3
:1001900090E001966CE370E090D280931901811198
:1001A00009C08091180190E0019668E170E085D265
:1001B00080931801089580910F018130A1F018F00B
:1001C000823001F108958BE191E09AD0823019F4E8
:1001D00081E080930F0182E191E092D08230A1F41E
:1001E00080930F0108958BE191E08AD0823011F461
:1001F00010920F0182E191E083D0823029F4809344
:100200000F01089510920F01089580910F01813020
:1002100021F0823009F456C00895209119012A3046
:10022000D0F580911801811136C08DEC289F812D69
:100230001124869586958695880F982F990F990F8A
:10024000890F281B822F28EE33E0829FB001839F05
:10025000700D112420911A0130E0A901440F551F9F
:10026000220F331F220F331F220F331F240F351F7E
:10027000AB01420F531F20911001309111013695AF
:10028000279536952795ABE7B4E12AD296958795C1
:10029000840F951F15C0309118013A3050F4909199
:1002A0001A01892F90E034E6239F800D911D1124BF
:1002B00007C0822F90E024E6329F800D911D11240B
:1002C0005AC10895109211011092100110921A0152
:1002D000109219011092180180E090E04CC108952D
:1002E0006ADF93CF0895FC01CB0171836083538350
:1002F0004283248331E03583422F60E0A2C1089518
:10030000CF93DF93EC016C818A819B81B7D1982FC9
:1003100081110BC08D81813041F4EFE3FCE931970D
:10032000F1F700C000001D8212C0992369F08D8191
:1003300081110CC08FE39CE90197F1F700C0000028
:1003400081E08D8382E003C080E001C080E0DF9126
:10035000CF91089582B1806F82B98FEF8093610051
:1003600008950F931F93CF93DF93CDB7DEB72B97ED
:100370000FB6F894DEBF0FBECDBF8C018BE0E0E07E
:10038000F1E0DE01119601900D928A95E1F78091DE
:100390000C0190E0019665E070E08FD180930C0134
:1003A00083B1806F83B980910C01823009F474C0ED
:1003B00030F4882359F0813009F43EC0D1C0833035
:1003C00009F498C0843009F4BAC0CAC098013695BF
:1003D00027953695279536952795A5ECB0E280D1DF
:1003E000AC01529542954F7045275F7045279A01A1
:1003F000ADECBCEC75D196958795969587959695BD
:1004000087959C01220F331F880F991F880F991F12
:10041000880F991F820F931F9A01281B390BE1E067
:10042000F0E0EC0FFD1FE20FF31F8081809362006C
:1004300083B18F7E83B994C0980136952795369500
:100440002795ABE7B4E14CD1AC01569547959A019D
:10045000ADECBCEC45D1969587959695879596958C
:1004600087959C01220F331F880F991F880F991FB2
:10047000880F991F820F931F9A01281B390BE1E007
:10048000F0E0EC0FFD1FE20FF31F8081809362000C
:1004900083B18F7D83B964C09801ADECBCEC20D1F1
:1004A000AC015695479556954795569547959A01AF
:1004B00017D19695879596958795969587959C01E2
:1004C000220F331F880F991F880F991F880F991FBC
:1004D000820F931F9A01281B390BE1E0F0E0EC0F2B
:1004E000FD1FE20FF31F80818093620083B18F7B39
:1004F00083B936C09801ADECBCECF2D096958795E7
:1005000096958795969587959C01220F331F880FA6
:10051000991F880F991F880F991F820F931F9801A9
:10052000281B390BE1E0F0E0EC0FFD1FE20FF31F99
:1005300080818093620083B18F7783B911C08091ED
:100540002101882339F08B858093620083B18F7DF0
:1005500083B906C08B858093620083B1806283B9C2
:100560002B960FB6F894DEBF0FBECDBFDF91CF91B3
:100570001F910F91089590930E0180930D0108959E
:1005800080910D0190910E01ECCE089581E0809351
:10059000210108951092210108951F920F920FB624
:1005A0000F9211240BB60F922F933F934F935F93AB
:1005B0006F937F938F939F93AF93BF93EF93FF932B
:1005C000DFDF83E882BFFF91EF91BF91AF919F91F1
:1005D0008F917F916F915F914F913F912F910F90EC
:1005E0000BBE0F900FBE0F901F9018951F920F9289
:1005F0000FB60F9211240BB60F922F933F934F9388
:100600005F936F937F938F939F93AF93BF93EF937A
:10061000FF937ADDFF91EF91BF91AF919F918F9101
:100620007F916F915F914F913F912F910F900BBEF2
:100630000F900FBE0F901F90189546DD789450DEF6
:10064000FECF613061F4FC01508121E030E0042EE6
:1006500002C0220F331F0A94E2F7252B2083611179
:100660000CC0FC01508121E030E002C0220F331F9A
:100670004A95E2F72095252320830895FC01808187
:1006800090E002C0959587956A95E2F7817008958C
:1006900083B7856083BF87B7816087BF83E882BFE8
:1006A000089585B5836085BD85B5886085BD87B7AC
:1006B000806887BF89EF83BD089597FB072E16F4E6
:1006C000009406D077FD08D01AD007FC05D03EF480
:1006D000909581959F4F0895709561957F4F0895EE
:1006E000A29FB001B39FC001A39F700D811D112473
:1006F000911DB29F700D811D1124911D0895AA1B9B
:10070000BB1B51E107C0AA1FBB1FA617B70710F0FC
:10071000A61BB70B881F991F5A95A9F7809590952E
:0A072000BC01CD010895F894FFCF4D
:0C072A003F065B4F666D7D077F6F80000F
:00000001FF
