:1000000045C0000060C000005EC000005CC0000091
:100010005AC0000058C0000056C0000054C0000084
:1000200052C00000D0C300004EC000004CC0000011
:100030004AC0000048C0000046C0000044C00000A4
:1000400099C3000040C000003EC000003CC000005A
:100050003AC0000038C0000036C0000034C00000C4
:1000600032C0000030C000002EC000002CC00000D4
:100070002AC0000028C0000026C0000024C00000E4
:1000800022C0000020C000001EC0000011241FBEBE
:10009000CFEFD0E1DEBFCDBF11E0A0E0B1E0EAEBF1
:1000A000FEE000E00BBF02C007900D92A632B10740
:1000B000D9F721E0A6E2B1E001C01D92A934B20750
:1000C000E1F7A8D3F8C69CCF10923101109230010D
:1000D00010923A01109239011092380110922F01BA
:1000E00088D1F0D2C2D3CAD320E049E350E06AE31A
:1000F00070E081E491E046D121E049E350E06AE319
:1001000070E08BE391E03ED122E049E350E06AE306
:1001100070E089E291E036D123E049E350E06AE300
:1001200070E082E391E02EC1089580912F0182302A
:1001300008F047C040913001509131014F5F5F4F4F
:100140009A01369527953695279536952795A5ECEE
:10015000B0E2B3D3929582958F7089279F708927DB
:1001600068EE73E0869F9001879F300D969F300D5B
:100170001124CA01821B930B9093310180933001AB
:10018000892BF9F480913A0190E001966CE370E0DC
:1001900081D380933A01811114C08091390190E09C
:1001A00001966CE370E076D380933901811109C028
:1001B0008091380190E0019668E170E06BD3809304
:1001C0003801089580912F01813069F018F0823054
:1001D000C9F0089581E491E0E2D08230B9F581E080
:1001E00080932F01089581E491E0D9D0823011F4F9
:1001F00010922F018BE391E0D2D0823039F58093B9
:100200002F0108958BE391E0CAD0823019F481E088
:1002100080932F0189E291E0C2D0823049F480912D
:10022000380190E0019668E170E034D380933801A2
:1002300082E391E0B4D0823049F48091390190E0BA
:1002400001966CE370E026D3809339010895CF9333
:1002500080912F018130B1F120F0823009F448C043
:1002600052C040913A01C4E62091300130913101F1
:10027000ADECBCEC22D3969587959695879596958F
:100280008795C49F800D911D1124C4D140913001E8
:10029000509131019A013695279536952795ABE710
:1002A000B4E10BD396958795C89F9001C99F300DF7
:1002B0001124CA01821B930BC29710F4B6D123C03C
:1002C000B8D121C0209138018091390190E034E605
:1002D000239F800D911D11249DD18091300190911B
:1002E0003101843F914010F4A0D10DC0A2D10BC0C8
:1002F000209138018091390190E034E6239F800DF0
:10030000911D112487D1CF9108950F931F93CF93FF
:10031000DF93CDB7DEB72A970FB6F894DEBF0FBED6
:10032000CDBF50DF94DF43E060E08BE091E017D277
:1003300080913A011F928F93809139011F928F9380
:10034000809138011F928F9386E191E09F938F9364
:100350008E010F5F1F4F1F930F93D2D244E061E0D5
:10036000C801FDD10FB6F894DEBF0FBECDBF2A96EF
:100370000FB6F894DEBF0FBECDBFDF91CF911F91B6
:100380000F910895FC01CB017183608353834283F5
:10039000248331E03583422F60E040C20895CF933B
:1003A000DF93EC016C818A819B8155D2982F81115A
:1003B0000BC08D81813041F4EFE3FCE93197F1F717
:1003C00000C000001D8212C0992369F08D81811147
:1003D0000CC08FE39CE90197F1F700C0000081E0B9
:1003E0008D8382E003C080E001C080E0DF91CF9187
:1003F000089582B1806F82B98FEF80936100089574
:100400000F931F93CF93DF93CDB7DEB72B970FB624
:10041000F894DEBF0FBECDBF8C018BE0E0E0F1E0D1
:10042000DE01119601900D928A95E1F780912601E7
:1004300090E0019665E070E02DD28093260183B1B3
:10044000806F83B980912601823009F474C030F442
:10045000882359F0813009F43EC0D1C0833009F4BB
:1004600098C0843009F4BAC0CAC09801369527955F
:100470003695279536952795A5ECB0E21ED2AC01AE
:10048000529542954F7045275F7045279A01ADEC14
:10049000BCEC13D2969587959695879596958795FA
:1004A0009C01220F331F880F991F880F991F880FF7
:1004B000991F820F931F9A01281B390BE1E0F0E08E
:1004C000EC0FFD1FE20FF31F80818093620083B168
:1004D0008F7E83B994C098013695279536952795D8
:1004E000ABE7B4E1EAD1AC01569547959A01ADEC82
:1004F000BCECE3D1969587959695879596958795CB
:100500009C01220F331F880F991F880F991F880F96
:10051000991F820F931F9A01281B390BE1E0F0E02D
:10052000EC0FFD1FE20FF31F80818093620083B107
:100530008F7D83B964C09801ADECBCECBED1AC0139
:100540005695479556954795569547959A01B5D135
:100550009695879596958795969587959C01220FF8
:10056000331F880F991F880F991F880F991F820FBB
:10057000931F9A01281B390BE1E0F0E0EC0FFD1FFF
:10058000E20FF31F80818093620083B18F7B83B978
:1005900036C09801ADECBCEC90D1969587959695B8
:1005A0008795969587959C01220F331F880F991F79
:1005B000880F991F880F991F820F931F9801281B7E
:1005C000390BE1E0F0E0EC0FFD1FE20FF31F80813B
:1005D0008093620083B18F7783B911C08091470106
:1005E000882339F08B858093620083B18F7D83B936
:1005F00006C08B858093620083B1806283B92B969D
:100600000FB6F894DEBF0FBECDBFDF91CF911F9123
:100610000F91089590932801809327010895809168
:10062000270190912801ECCE089581E08093470145
:10063000089510924701089587B3806E87BB84B3F5
:100640008FEF84BB089588BB089585BB0895809182
:1006500048018F7D80934801F6CF0895809148012D
:10066000806280934801EFCF0895809148018F7B8D
:1006700080934801E8CF0895809148018068809375
:100680004801E1DF8FE99FE00197F1F700C000002A
:100690000895DBCF0895809148018F7780934801BA
:1006A000D2DF8FE99FE00197F1F700C000000895C5
:1006B000CF93C82FCCDFD9DFDFDF8C2FEADFEBDF72
:1006C000CF910895B9DF8FE59AEE0197F1F700C059
:1006D000000088E3EDDF8FE19EE40197F1F700C0B1
:1006E000000088E3E5DF8FE99FE00197F1F700C0A4
:1006F000000088E3DDDF88E3DBDF88E0D9DF81E02D
:10070000D7DF86E0D5DF8CE0D3CF0895CF93C82F15
:10071000A5DFABDFB1DF8C2FBCDFBDDFCF9108954C
:100720000F931F93CF93DF938C01C0E0D0E002C002
:10073000EDDF2196F801EC0FFD1F80818111F8CFCC
:10074000DF91CF911F910F9108956F70817090E4A8
:10075000899F600D1124862F8058AACF0895CF93CA
:10076000DF93EC01862F642FF0DFCE01D9DFDF911C
:10077000CF9108951F920F920FB60F9211240BB6CE
:100780000F922F933F934F935F936F937F938F932A
:100790009F93AF93BF93EF93FF9341DF83E882BFB3
:1007A000FF91EF91BF91AF919F918F917F916F9149
:1007B0005F914F913F912F910F900BBE0F900FBE05
:1007C0000F901F9018951F920F920FB60F92112441
:1007D0000BB60F922F933F934F935F936F937F933B
:1007E0008F939F93AF93BF93EF93FF939EDCFF9103
:1007F000EF91BF91AF919F918F917F916F915F9199
:100800004F913F912F910F900BBE0F900FBE0F9005
:100810001F90189559DC789478DDFECF613061F433
:10082000FC01508121E030E0042E02C0220F331F72
:100830000A94E2F7252B208361110CC0FC01508142
:1008400021E030E002C0220F331F4A95E2F72095E5
:10085000252320830895FC01808190E002C09595B6
:1008600087956A95E2F78170089583B7856083BFA5
:1008700087B7816087BF83E882BF089585B58360AD
:1008800085BD85B5886085BD87B7806887BF89EFDE
:1008900083BD089597FB072E16F4009406D077FDCC
:1008A00008D01AD007FC05D03EF4909581959F4F53
:1008B0000895709561957F4F0895A29FB001B39FF1
:1008C000C001A39F700D811D1124911DB29F700D59
:1008D000811D1124911D0895AA1BBB1B51E107C066
:1008E000AA1FBB1FA617B70710F0A61BB70B881FC0
:1008F000991F5A95A9F780959095BC01CD0108954F
:100900000F931F93CF93DF93CDB7DEB72E970FB61C
:10091000F894DEBF0FBECDBF0D891E8986E08C83A3
:100920001A8309838FEF9FE79E838D83AE01475E15
:100930005F4F6F89788DCE01019610D0EF81F885D9
:10094000E00FF11F10822E960FB6F894DEBF0FBE97
:10095000CDBFDF91CF911F910F9108952F923F92BC
:100960004F925F926F927F928F929F92AF92BF92BF
:10097000CF92DF92EF92FF920F931F93CF93DF936B
:10098000CDB7DEB72B970FB6F894DEBF0FBECDBF45
:100990006C017B018A01FC0117821682838181FF31
:1009A000BFC1CE0101963C01F6019381F70193FD91
:1009B000859193FF81917F01882309F4ADC1853230
:1009C00039F493FD859193FF81917F01853221F464
:1009D000B60190E0D6D1E8CF912C212C312CFFE14B
:1009E000F315D8F08B3279F038F4803279F0833215
:1009F000A1F4232D20611DC08D3261F0803369F494
:100A0000232D216016C0832D8260382EE32DE460F3
:100A10003E2E2AC0F32DF8601DC037FC2DC020EDFE
:100A2000280F2A3040F08E32B9F436FC75C1232DE0
:100A30002064322E19C036FE06C08AE0989E200D32
:100A40001124922E11C0EAE02E9E200D1124222E98
:100A5000F32DF0623F2E08C08C3621F4832D806880
:100A6000382E02C0883641F4F70193FD859193FF3B
:100A700081917F018111B3CF982F9F7D9554933041
:100A800028F40C5F1F4F9FE399830DC0833631F02C
:100A9000833771F0833509F055C020C0F80180819B
:100AA00089830E5F1F4F88248394912C530112C0B9
:100AB0002801F2E04F0E511CF801A080B18036FEF3
:100AC00003C0692D70E002C06FEF7FEFC5014ED10A
:100AD0004C018201F32DFF773F2E15C0280122E043
:100AE000420E511CF801A080B18036FE03C0692D72
:100AF00070E002C06FEF7FEFC5012DD14C01F32DE7
:100B0000F0683F2E820133FC19C0822D90E08816D8
:100B10009906A0F4B60180E290E033D12A94F5CF93
:100B2000F50137FC859137FE81915F01B60190E0B8
:100B300028D121102A9421E0821A9108811491046D
:100B400079F7E1C0843611F0893639F5F80137FEBE
:100B500007C060817181828193810C5F1F4F08C043
:100B600060817181072E000C880B990B0E5F1F4F5F
:100B7000F32DFF763F2E97FF09C0909580957095D5
:100B800061957F4F8F4F9F4FF0683F2E2AE030E0F6
:100B9000A30133D1882E861844C0853731F4232D24
:100BA0002F7EB22E2AE030E025C0932D997FB92EFA
:100BB0008F36C1F018F4883579F0AEC0803719F05F
:100BC000883721F0A9C0E92FE061BE2EB4FE0DC028
:100BD000FB2DF460BF2E09C034FE0AC0292F266009
:100BE000B22E06C028E030E005C020E130E002C0AF
:100BF00020E132E0F801B7FE07C060817181828197
:100C000093810C5F1F4F06C06081718180E090E08E
:100C10000E5F1F4FA301F1D0882E8618FB2DFF77A2
:100C20003F2E36FE0DC0232D2E7FA22E891458F4A0
:100C300034FE0BC032FC09C0832D8E7EA82E05C069
:100C4000B82CA32C03C0B82C01C0B92CA4FE0FC033
:100C5000FE01E80DF11D8081803321F49A2D997EEB
:100C6000A92E09C0A2FE06C0B394B39404C08A2D75
:100C7000867809F0B394A3FC10C0A0FE06C0B2149D
:100C800080F4280C922C9B180DC0B21458F4B601B5
:100C900080E290E076D0B394F8CFB21418F42B1819
:100CA00002C0982C212CA4FE0FC0B60180E390E076
:100CB00068D0A2FE16C0A1FC03C088E790E002C085
:100CC00088E590E0B6010CC08A2D867851F0A1FE2F
:100CD00002C08BE201C080E2A7FC8DE2B60190E089
:100CE00050D0891430F4B60180E390E04AD09A9451
:100CF000F8CF8A94F301E80DF11D8081B60190E0F0
:100D000040D08110F6CF222009F44ECEB60180E209
:100D100090E037D02A94F7CFF6018681978102C000
:100D20008FEF9FEF2B960FB6F894DEBF0FBECDBFAF
:100D3000DF91CF911F910F91FF90EF90DF90CF90B7
:100D4000BF90AF909F908F907F906F905F904F90EB
:100D50003F902F900895FC01059061507040011064
:100D6000D8F7809590958E0F9F1F0895FC016150D4
:100D7000704001900110D8F7809590958E0F9F1FBD
:100D800008950F931F93CF93DF93FB01238121FDE0
:100D900003C08FEF9FEF2CC022FF16C04681578102
:100DA000248135814217530744F4A081B1819D010C
:100DB0002F5F3F4F318320838C93268137812F5FB4
:100DC0003F4F3783268314C08B01EC01FB01008465
:100DD000F185E02D0995892BE1F6D80116968D91C4
:100DE0009C911797019617969C938E931697CE0118
:100DF000DF91CF911F910F910895FA01AA27283012
:100E000051F1203181F1E8946F936E7F6E5F7F4FD7
:100E10008F4F9F4FAF4FB1E03ED0B4E03CD0670F53
:100E2000781F891F9A1FA11D680F791F8A1F911DA6
:100E3000A11D6A0F711D811D911DA11D20D009F4F6
:100E400068943F912AE0269F11243019305D319338
:100E5000DEF6CF010895462F4770405D4193B3E021
:100E60000FD0C9F7F6CF462F4F70405D4A3318F0C8
:100E7000495D31FD4052419302D0A9F7EACFB4E079
:100E8000A6959795879577956795BA95C9F7009731
:100E90006105710508959B01AC010A2E06945795D2
:100EA000479537952795BA95C9F7620F731F841F29
:0A0EB000951FA01D0895F894FFCFD0
:100EBA003F065B4F666D7D077F6F8054696D6520C5
:100ECA00436C6F636B00253032643A253032643AE2
:060EDA0025303264000027
:00000001FF
