S0140000436C6F636B4D616368696E652E737265636F
S113000058C0000074C0000072C0000070C000003E
S11300106EC000006CC000006AC0000068C0000030
S113002066C000008DC5000062C0000060C0000012
S11300305EC000005CC000005AC0000058C0000050
S113004056C0000054C0000052C0000050C0000060
S11300504EC000004CC000004AC0000048C0000070
S113006046C0000044C0000042C0000040C0000080
S11300703EC000003CC000003AC0000038C0000090
S113008036C0000034C0000032C00000FF0110027E
S113009035025102620266026A029202E602C60256
S11300A0FF022F035C038C03B7036804C203E70356
S11300B00C0411241FBECFEFD0E1DEBFCDBF11E091
S11300C0A0E0B1E0E2E5F2E100E00BBF02C007907E
S11300D00D92A034B107D9F721E0A0E4B1E001C04A
S11300E01D92A639B207E1F755D50C94270988CF9C
S11300F0109257011092560110927E0110927D01C8
S113010010926801109274011092730110924801C8
S1130110109289011092800110928301109247017C
S11301201092400110927C0110927B0110925501B3
S113013014D462D466D520E042E350E061E370E079
S11301408EE691E0C3D421E042E350E061E370E045
S113015080E591E0BBD422E042E350E061E370E04B
S113016080E991E0B3D423E042E350E061E370E03E
S113017089E691E0ABD424E042E350E061E370E02F
S113018089E491E0A3D425E042E350E061E370E028
S113019083E691E09BD426E042E350E061E370E023
S11301A08EE591E093D427E042E350E061E370E010
S11301B084E891E08BD420E049E350E06AE370E006
S11301C08AE891E093D321E049E350E06AE370E0E8
S11301D088E591E08BD322E049E350E06AE370E0E4
S11301E081E491E083D323E049E350E06AE370E0E3
S11301F085E791E07BC3089580915501813009F42E
S113020047C040915601509157014F5F5F4F9A018B
S1130210369527953695279536952795A5ECB0E222
S113022018D5929582958F7089279F70892768EEDB
S113023073E0869F9001879F300D969F300D1124A7
S1130240CA01821B930B9093570180935601892B0B
S1130250F9F480917E0190E001966CE370E0DDD4C6
S113026080937E01811114C080917D0190E00196FC
S11302706CE370E0D2D480937D01811109C0809138
S1130280680190E0019668E170E0C7D4809368014A
S1130290089580915501813031F540914E0150917E
S11302A04F014F5F5F4F9A013695279536952795F5
S11302B036952795A5ECB0E2CCD4929582958F70B3
S11302C089279F70892768EE73E0869F9001879F36
S11302D0300D969F300D1124CA01821B930B90930D
S11302E04F0180934E01089580915501833009F0A8
S11302F047C040917301509174014F5F5F4F9A0161
S1130300369527953695279536952795A5ECB0E231
S1130310A0D4929582958F7089279F70892768EE63
S113032073E0869F9001879F300D969F300D1124B6
S1130330CA01821B930B9093740180937301892BE0
S1130340F9F48091480190E001966CE370E065D483
S113035080934801811114C08091890190E0019635
S11303606CE370E05AD480938901811109C08091B3
S1130370800190E0019668E170E04FD480938001A1
S1130380089580915501883069F580917B019091A1
S11303907C01009711F587EE93E090937C018093A4
S11303A07B0180914001811114C08BE38093400153
S11303B080914701811109C08BE3809347018091AB
S11303C08301815080938301089581508093470174
S11303D008958150809340010895019790937C0182
S11303E080937B010895E09155018E2F90E08A302F
S11303F0910508F0EBC0FC01EA5BFF4F21C48AE8D9
S113040091E081D2823011F48093550188E591E026
S11304107AD2823009F0DAC081E0809355010895E0
S113042088E591E070D2823011F41092550181E494
S113043091E069D2823049F48091680190E001969C
S113044068E170E0EAD38093680185E791E05BD2CC
S1130450823009F0BBC080917D0190E001966CE38D
S113046070E0DBD380937D0108958AE891E04BD25C
S1130470823029F481E0B6D286E08093550188E584
S113048091E041D2823019F483E08093550181E4F4
S113049091E039D2823009F099C084E0809355010B
S11304A0089588E591E02FD2823011F480935501AC
S11304B085E791E028D2823009F088C085E08093F6
S11304C05501089582E080935501089583E0809357
S11304D0550108958AE891E016D2823011F4109201
S11304E0550188E591E00FD2823019F488E08093B9
S11304F0550181E491E007D2823019F487E08093BA
S1130500550185E791E0FFD1823009F05FC0109278
S11305108301109247011092400110927C011092C5
S11305207B0108958AE891E0EED1823029F481E0DC
S113053059D286E08093550188E591E0E4D1823078
S113054049F48091830190E0019664E670E065D3FC
S11305508093830181E491E0D6D1823049F4809183
S1130560470190E001966CE370E057D38093470114
S113057085E791E0C8D1823049F48091400190E050
S113058001966CE370E049D38093400188E591E0E3
S1130590BAD18230D9F48EE691E0AAD280E591E016
S11305A0A7D280E991E0A4D289E691E0A1D289E4BE
S11305B091E09ED283E691E09BD28EE591E098D2C1
S11305C084E891E095D286E08093550108950F93D5
S11305D01F93CF93DF93CDB7DEB72A970FB6F89466
S11305E0DEBF0FBECDBFE09155018E2F90E0893064
S11305F0910508F06DC1FC01E05BFF4F21C39091B0
S11306007E0180910001981709F462C143E060E023
S113061081E091E050D280917E011F928F9380916E
S11306207D011F928F93809168011F928F938CE0BC
S113063091E09F938F938E010F5F1F4F1F930F9332
S11306402BD344E061E0C80136D280917E018093CF
S113065000010FB6F894DEBF0FBECDBF39C1809143
S11306604E0190914F018C3B924000F580917E01A8
S11306701F928F9380917D011F928F9380916801C7
S11306801F928F938CE091E09F938F938E010F5F65
S11306901F4F1F930F9300D344E061E0C8010BD2B6
S11306A00FB6F894DEBF0FBECDBF12C144E061E0C7
S11306B08BE191E000D20CC143E060E084E291E080
S11306C0FAD12091730130917401ADECBCECC1D22C
S11306D09695879596958795969587959F938F93ED
S11306E0809148011F928F93809189011F928F936B
S11306F08CE091E09F938F938E010F5F1F4F1F93A8
S11307000F93CAD244E061E0C801D5D10FB6F89482
S1130710DEBF0FBECDBFDCC02091730130917401E8
S1130720ADECBCEC96D29695879596958795969563
S113073087959F938F93809148011F928F93809107
S113074089011F928F938CE091E09F938F938E0188
S11307500F5F1F4F1F930F939FD244E061E0C801C6
S1130760AAD10FB6F894DEBF0FBECDBFB1C01092B0
S11307707401109273011092480110928901109231
S11307808001A6C045E060E08FE291E094D18091C1
S113079040011F928F93809147011F928F93809104
S11307A083011F928F938CE091E09F938F938E012E
S11307B00F5F1F4F1F930F936FD244E061E0C80196
S11307C07AD10FB6F894DEBF0FBECDBF81C043E02F
S11307D060E085E391E06FD1809140011F928F9397
S11307E0809147011F928F93809183011F928F9371
S11307F08CE091E09F938F938E010F5F1F4F1F93A7
S11308000F934AD244E061E0C80155D10FB6F89481
S1130810DEBF0FBECDBF5CC0809140011F928F939D
S1130820809147011F928F93809183011F928F9330
S11308308CE091E09F938F938E010F5F1F4F1F9366
S11308400F932AD244E061E0C80135D1809183013D
S11308500FB6F894DEBF0FBECDBF811139C09091A1
S11308604701911135C020914001211131C01F92DF
S11308702F931F929F931F928F938CE091E09F93ED
S11308808F931F930F9308D244E061E0C80113D102
S11308908EE691E042D180E591E03FD180E991E09C
S11308A03CD189E691E039D189E491E036D183E6FF
S11308B091E033D18EE591E030D184E891E02DD1FF
S11308C089E0809355010FB6F894DEBF0FBECDBF0B
S11308D02A960FB6F894DEBF0FBECDBFDF91CF913D
S11308E01F910F9108957FDD72CE0895FC01CB0115
S11308F07183608353834283248331E03583422FA1
S113090060E055C10895CF93DF93EC016C818A8137
S11309109B816DD1982F81110BC08D81813041F461
S1130920EFE3FCE93197F1F700C000001D8212C02B
S1130930992369F08D8181110CC08FE39CE90197A3
S1130940F1F700C0000081E08D8382E003C080E005
S113095001C080E0DF91CF91089582B1806F82B9A8
S11309608FEF809361000895609195016F7D60938E
S1130970950188E390E038C1089560919501606223
S11309806093950188E390E02FC1089560919501EB
S11309906F7B6093950188E390E026C10895609190
S11309A0950160686093950188E390E01DD18FE91B
S11309B09FE00197F1F700C000000895682F85E3D8
S11309C090E012C10895609195016F77609395014D
S11309D088E390E009D18FE99FE00197F1F700C027
S11309E000000895CF93C82FBFDFD0DFD8DF8C2F4E
S11309F0E5DFE9DFCF91089545E061E087E390E02A
S1130A00D6D046E061E087E390E0D1D047E061E0F2
S1130A1087E390E0CCD061E084E390E0BFD08FE541
S1130A209AEE0197F1F700C0000088E3DBDF8FE165
S1130A309EE40197F1F700C0000088E3D3DF8FE95B
S1130A409FE00197F1F700C0000088E3CBDF88E363
S1130A50C9DF88E0C7DF81E0C5DF86E0C3DF8CE063
S1130A60C1CF0895CF93C82F88DF90DF98DF8C2FF4
S1130A70A5DFA9DFCF9108950F931F93CF93DF9341
S1130A808C01C0E0D0E002C0EDDF2196F801EC0F4C
S1130A90FD1F80818111F8CFDF91CF911F910F91BC
S1130AA008956F70817090E4899F600D1124862FE2
S1130AB0805898CF0895CF93DF93EC01862F642F4D
S1130AC0F0DFCE01D9DFDF91CF910895FC0171836E
S1130AD06083538342832483FB01308181E090E06F
S1130AE002C0880F991F2A95E2F7832B808308950B
S1130AF0DC011296ED91FC911397408121E030E0E6
S1130B00B90114960C9002C0660F771F0A94E2F79D
S1130B10CB018095842380830895DC011296ED91A6
S1130B20FC911397408121E030E0C90114960C90A8
S1130B3002C0880F991F0A94E2F7842B80830895DA
S1130B401F920F920FB60F9211240BB60F922F9390
S1130B503F934F935F936F937F938F939F93AF9341
S1130B60BF93EF93FF9348DBBFDB93DB0ADCFF917A
S1130B70EF91BF91AF919F918F917F916F915F9111
S1130B804F913F912F910F900BBE0F900FBE0F907E
S1130B901F901895ADDA7894A6DEFECF613021F46B
S1130BA02FEFFC0120830895FC0110820895613029
S1130BB061F4FC01508121E030E0042E02C0220FD8
S1130BC0331F0A94E2F7252B208361110CC0FC012A
S1130BD0508121E030E002C0220F331F4A95E2F732
S1130BE02095252320830895FC0160830895FC014A
S1130BF0808190E002C0959587956A95E2F78170AF
S1130C00089585B5836085BD85B5886085BD87B742
S1130C10806887BF89EF83BD089597FB072E16F47C
S1130C20009406D077FD08D023D007FC05D03EF40D
S1130C30909581959F4F0895709561957F4F089584
S1130C40EE0FFF1F0024001C0BBE0790F691E02D51
S1130C500994A29FB001B39FC001A39F700D811D91
S1130C601124911DB29F700D811D1124911D0895B1
S1130C70AA1BBB1B51E107C0AA1FBB1FA617B707BE
S1130C8010F0A61BB70B881F991F5A95A9F78095DA
S1130C909095BC01CD0108950F931F93CF93DF93DB
S1130CA0CDB7DEB72E970FB6F894DEBF0FBECDBF1B
S1130CB00D891E8986E08C831A8309838FEF9FE751
S1130CC09E838D83AE01475E5F4F6F89788DCE0121
S1130CD0019610D0EF81F885E00FF11F10822E9657
S1130CE00FB6F894DEBF0FBECDBFDF91CF911F9139
S1130CF00F9108952F923F924F925F926F927F923D
S1130D008F929F92AF92BF92CF92DF92EF92FF9217
S1130D100F931F93CF93DF93CDB7DEB72B970FB607
S1130D20F894DEBF0FBECDBF6C017B018A01FC01CC
S1130D3017821682838181FFBFC1CE0101963C01D7
S1130D40F6019381F70193FD859193FF81917F01D2
S1130D50882309F4ADC1853239F493FD859193FF5D
S1130D6081917F01853221F4B60190E0D6D1E8CF9C
S1130D70912C212C312CFFE1F315D8F08B3279F032
S1130D8038F4803279F08332A1F4232D20611DC020
S1130D908D3261F0803369F4232D216016C0832DD8
S1130DA08260382EE32DE4603E2E2AC0F32DF860D5
S1130DB01DC037FC2DC020ED280F2A3040F08E32A4
S1130DC0B9F436FC75C1232D2064322E19C036FEC9
S1130DD006C08AE0989E200D1124922E11C0EAE0EC
S1130DE02E9E200D1124222EF32DF0623F2E08C0DA
S1130DF08C3621F4832D8068382E02C0883641F465
S1130E00F70193FD859193FF81917F018111B3CF08
S1130E10982F9F7D9554933028F40C5F1F4F9FE3C8
S1130E2099830DC0833631F0833771F0833509F02F
S1130E3055C020C0F801808189830E5F1F4F88242C
S1130E408394912C530112C02801F2E04F0E511CDF
S1130E50F801A080B18036FE03C0692D70E002C0A5
S1130E606FEF7FEFC5014ED14C018201F32DFF7767
S1130E703F2E15C0280122E0420E511CF801A0802B
S1130E80B18036FE03C0692D70E002C06FEF7FEFC2
S1130E90C5012DD14C01F32DF0683F2E820133FCA6
S1130EA019C0822D90E088169906A0F4B60180E25C
S1130EB090E033D12A94F5CFF50137FC859137FEC4
S1130EC081915F01B60190E028D121102A9421E09C
S1130ED0821A91088114910479F7E1C0843611F0E3
S1130EE0893639F5F80137FE07C060817181828146
S1130EF093810C5F1F4F08C060817181072E000C25
S1130F00880B990B0E5F1F4FF32DFF763F2E97FF33
S1130F1009C090958095709561957F4F8F4F9F4F35
S1130F20F0683F2E2AE030E0A30133D1882E8618E2
S1130F3044C0853731F4232D2F7EB22E2AE030E0D1
S1130F4025C0932D997FB92E8F36C1F018F48835BA
S1130F5079F0AEC0803719F0883721F0A9C0E92FA5
S1130F60E061BE2EB4FE0DC0FB2DF460BF2E09C09F
S1130F7034FE0AC0292F2660B22E06C028E030E0D5
S1130F8005C020E130E002C020E132E0F801B7FE04
S1130F9007C060817181828193810C5F1F4F06C0FD
S1130FA06081718180E090E00E5F1F4FA301F1D05A
S1130FB0882E8618FB2DFF773F2E36FE0DC0232D7D
S1130FC02E7FA22E891458F434FE0BC032FC09C0C3
S1130FD0832D8E7EA82E05C0B82CA32C03C0B82C5C
S1130FE001C0B92CA4FE0FC0FE01E80DF11D8081E3
S1130FF0803321F49A2D997EA92E09C0A2FE06C041
S1131000B394B39404C08A2D867809F0B394A3FCF6
S113101010C0A0FE06C0B21480F4280C922C9B18B9
S11310200DC0B21458F4B60180E290E076D0B394C7
S1131030F8CFB21418F42B1802C0982C212CA4FE5B
S11310400FC0B60180E390E068D0A2FE16C0A1FCF8
S113105003C088E790E002C088E590E0B6010CC0C8
S11310608A2D867851F0A1FE02C08BE201C080E295
S1131070A7FC8DE2B60190E050D0891430F4B6019B
S113108080E390E04AD09A94F8CF8A94F301E80D73
S1131090F11D8081B60190E040D08110F6CF22206E
S11310A009F44ECEB60180E290E037D02A94F7CF0F
S11310B0F6018681978102C08FEF9FEF2B960FB6C2
S11310C0F894DEBF0FBECDBFDF91CF911F910F917A
S11310D0FF90EF90DF90CF90BF90AF909F908F9054
S11310E07F906F905F904F903F902F900895FC01F8
S11310F00590615070400110D8F7809590958E0F3F
S11311009F1F0895FC016150704001900110D8F7B1
S1131110809590958E0F9F1F08950F931F93CF93E3
S1131120DF93FB01238121FD03C08FEF9FEF2CC0D0
S113113022FF16C046815781248135814217530707
S113114044F4A081B1819D012F5F3F4F31832083FF
S11311508C93268137812F5F3F4F3783268314C0BA
S11311608B01EC01FB010084F185E02D0995892BAD
S1131170E1F6D80116968D919C91179701961796D2
S11311809C938E931697CE01DF91CF911F910F916F
S11311900895FA01AA27283051F1203181F1E89409
S11311A06F936E7F6E5F7F4F8F4F9F4FAF4FB1E056
S11311B03ED0B4E03CD0670F781F891F9A1FA11D51
S11311C0680F791F8A1F911DA11D6A0F711D811D52
S11311D0911DA11D20D009F468943F912AE0269F17
S11311E011243019305D3193DEF6CF010895462F76
S11311F04770405D4193B3E00FD0C9F7F6CF462F57
S11312004F70405D4A3318F0495D31FD40524193BF
S113121002D0A9F7EACFB4E0A6959795879577957C
S11312206795BA95C9F700976105710508959B0103
S1131230AC010A2E06945795479537952795BA958C
S1131240C9F7620F731F841F951FA01D0895F8949A
S1051250FFCFCA
S1131252FF54696D6520436C6F636B002530326403
S11312623A253032643A253032640020203A202074
S11312723A20200053746F702057617463680054DD
S1131282696D65720054696D65722053657400005E
S9030000FC
